:100000000C9434000C942C050C946C050C94820513
:100010000C9451000C9451000C9451000C94620CFF
:100020000C948B0C0C94AF0C0C9451000C94290E76
:100030000C94520E0C94760E0C94A60A0C94CF0AD3
:100040000C94F30A0C9451000C9451000C94510040
:100050000C9451000C9451000C9451000C945100DC
:100060000C9451000C94510011241FBECFEFD8E026
:10007000DEBFCDBF11E0A0E0B1E0EAE4F4E202C0EF
:1000800005900D92AA33B107D9F721E0AAE3B1E0B8
:1000900001C01D92A037B207E1F70E94600F0C94D7
:1000A000D8110C940000FC010B97C0F4E652FE4EF0
:1000B00080917C000C94AF0F8E7F80937C008091A8
:1000C0007C008D7F80937C0080917C008B7F80936F
:1000D0007C0080917C00877F80937C000895816004
:1000E000ECCF8E7F80937C0080917C008260EACF91
:1000F0008160F8CF8E7F80937C0080917C008D7F23
:1001000080937C0080917C008460E1CF8160F3CF9C
:100110008E7F80937C0080917C008260F1CF816033
:10012000F8CF8E7F80937C0080917C008D7F8093C0
:100130007C0080917C008B7F80937C0080917C0090
:100140008860CACF8E7F80937C0080917C00826023
:1001500080937C0080917C008460EECF8160F3CF3F
:10016000CF93DF93EC0180917A00806880937A00CE
:10017000EC81FD81E730F10598F4EB51FE4E809162
:100180007A000C94AF0F8E7F80937A0080917A0072
:100190008D7F80937A0080917A008B7F80937A00A4
:1001A0008A819B810E9453008881998181309105C9
:1001B00091F18230910599F1892B51F480917C0065
:1001C0008F7B80937C0080917C008F7780937C0074
:1001D000DF91CF9108958E7F80937A0080917A008D
:1001E0008260D7CF8160F8CF8E7F80937A00809134
:1001F0007A008D7F80937A0080917A008460CECFE0
:100200008160F3CF8E7F80937A0080917A00826044
:10021000F1CF8160F8CF80917C008064D2CF809153
:100220007C00806480937C0080917C008068CECFCD
:10023000EAE7F0E0808180648083089580917A000D
:1002400082958F70D9F380917A00806180937A00D3
:1002500080917800909179000895FC0180819181CE
:100260008130910541F08230910539F0892B39F4C4
:10027000FC98FD980895FC9AFCCFFC98FD9A08958F
:10028000F999FECF81BD92BD60BDFA9AF99A0895A1
:10029000F999FECF81BD92BDF89A80B50895FC0111
:1002A0008FB78F778FBFE931F10578F4E451FE4EB7
:1002B0000C94AF0F809169008160809369008091F8
:1002C0006900826080936900E89A8FB780688FBF69
:1002D000089580916900846080936900809169002D
:1002E000886080936900E99AF0CF8091680081600E
:1002F0008093680080916B00816080936B00E5CFF4
:100300008091680081608093680080916B008260BA
:10031000F4CF8091680081608093680080916B00C9
:100320008460EBCF80916800816080936800809149
:100330006B008860E2CF80916800816080936800E4
:1003400080916B008061D9CF80916800816080933B
:10035000680080916B008062D0CF809168008160DE
:100360008093680080916B008064C7CF80916800A3
:1003700081608093680080916B008068BECF80911F
:10038000680082608093680080916C008160809337
:100390006C009BCF809168008260809368008091A0
:1003A0006C008260F4CF8091680082608093680066
:1003B00080916C008460EBCF8091680082608093B4
:1003C000680080916C008860E2CF80916800826054
:1003D0008093680080916C008061D9CF8091680023
:1003E00082608093680080916C008062D0CF8091A1
:1003F000680082608093680080916C008064C7CF41
:100400008091680084608093680080916D008160B5
:1004100080936D005ACF809168008460809368005B
:1004200080916D008260F4CF809168008460809339
:10043000680080916D008460EBCF809168008460DB
:100440008093680080916D008860E2CF80916800A1
:1004500084608093680080916D008061D9CF809125
:10046000680084608093680080916D008062D0CFC6
:100470008091680084608093680080916D00806442
:10048000C7CF8091680084608093680080916D0080
:100490008068BECFFC01499708F04DC0EB5FFD4E70
:1004A0000C94AF0FE8980895E998089580916B0037
:1004B0008E7F80936B00089580916B008D7FF9CFC4
:1004C00080916B008B7FF5CF80916B00877FF1CFA0
:1004D00080916B008F7EEDCF80916B008F7DE9CF97
:1004E00080916B008F7BE5CF80916B008F77E1CFA0
:1004F00080916C008E7F80936C00089580916C00D9
:100500008D7FF9CF80916C008B7FF5CF80916C004F
:10051000877FF1CF80916C008F7EEDCF80916C0052
:100520008F7DE9CF80916C008F7BE5CF80916D004E
:100530008E7F80936D00089580916D008D7FF9CF3F
:1005400080916D008B7FF5CF80916D00877FF1CF1B
:1005500080916D008F7EEDCF80916D008F7DE9CF12
:1005600080916D008F7BE5CF80916D008F77E1CF1B
:100570008330A0F5813099F0823011F1663070F54A
:1005800081E090E001C0880F6A95EAF794B1452BAD
:1005900021F48095892384B90895892BFCCF673095
:1005A000E8F481E090E001C0880F6A95EAF797B11E
:1005B000452B21F48095892387B90895892BFCCF99
:1005C000683060F481E090E001C0880F6A95EAF736
:1005D0009AB1452B21F4809589238AB90895892BF6
:1005E000FCCF833008F053C08130F1F08230B9F194
:1005F000663008F04CC084B190E0062E02C095959C
:1006000087950A94E2F780FF42C081E090E001C044
:10061000880F6A95EAF795B1411104C08095892346
:1006200085B90895892BFCCF673088F587B190E0B4
:10063000062E02C0959587950A94E2F780FF27C0A1
:1006400081E090E001C0880F6A95EAF798B1411106
:1006500004C08095892388B90895892BFCCF683020
:10066000B0F48AB190E0062E02C0959587950A9461
:10067000E2F780FF0CC081E090E001C0880F6A952E
:10068000EAF79BB1411104C0809589238BB9089585
:10069000892BFCCF833078F4813079F0823089F077
:1006A000663048F483B190E002C0959587956A95CD
:1006B000E2F7982F9170892F08956730E0F786B19F
:1006C000F2CF6830C0F789B1EECF833048F4813083
:1006D00021F0823021F064B9089567B908956AB9AC
:1006E0000895833048F4813021F0823021F065B9DB
:1006F000089568B908956BB90895833028F481305E
:1007000029F0823029F093B1892F089596B1FCCF5A
:1007100099B1FACFCF92DF92EF92FF92CF93DF930E
:10072000CDB7DEB728970FB6F894DEBF0FBECDBFAA
:100730008FB78F778FBF80913D01853039F09091D1
:100740003B01911103C08F5F80933D0160E081E028
:100750000E94710341E060913D0181E00E94F1023D
:10076000E0913D01E150FF0BEE0FFF1FEE0FFF1F69
:10077000E050FF4FC080D180E280F38080913E0145
:1007800090913F019C0150E040E029833A834B83E4
:100790005C83AAE0B0E0A70196010E94B50F6D83CB
:1007A0007E838F83988769817A818B819C812D815B
:1007B0003E814F8158850E948D0FA70196010E94AE
:1007C0008D0F298340E0622F86E491E00E940A06A3
:1007D00080913E0190913F0164EB70E00E94790F9F
:1007E00065E070E00E94790FCB0130913D0122E07D
:1007F00041E068E571E0DC013A9FC0013B9F900D4C
:1008000011240E946F0880913A0181114AC03981F8
:10081000232F30E050E040E029833A834B835C8310
:10082000CA01B9010E94DF1020E030E040E251E44B
:1008300069837A838B839C8369817A818B819C8194
:100840000E943C1048E551E069837A838B839C8346
:1008500069817A818B819C810E94DE0780913B01B6
:1008600081110FC068EE73E080E090E00E94260ADC
:1008700080913D01853029F481E080933B01809394
:100880003A018FB780688FBF28960FB6F894DEBF05
:100890000FBECDBFDF91CF91FF90EF90DF90CF9053
:1008A000089580913E0190913F019C0150E040E00D
:1008B00029833A834B835C83CA01B9010E94DD100E
:1008C00020E03FEF4FE757E4B3CFE4E6F1E082E00A
:1008D00090E09183808383E090E09783868381E03A
:1008E00090E0938382831582148293878287918715
:1008F0008087CF010C94C10EE6E4F1E024E021836F
:1009000082E0808395E09383828336E0358384831D
:1009100037E03783868383E08187108623871286BA
:1009200095871486CF010C94D50590E080E00E9455
:100930004F0181E090E00E944F0182E090E00C9432
:100940004F01E8E5F1E081E090E0918380832FE3BF
:100950003CE93187208723E030E037832683938387
:10096000828395838483CF010C945506109257019E
:100970001092560186E591E00C942D0180E991E0FA
:100980000E944801282F30E08F3F31F130933F0122
:1009900020933E0181E991E00E94480120913E01AF
:1009A00030913F01382B30933F0120933E0182E983
:1009B00091E00E94480180933D0183E991E00E940B
:1009C000480180933B0184E991E00E9448018093B3
:1009D0003A0181E080933C01089580E991E00E9412
:1009E000480160913E01861721F080E991E00E9464
:1009F000400181E991E00E94480160913F01861722
:100A000021F081E991E00E94400182E991E00E9499
:100A1000480160913D01681721F082E991E00E9450
:100A2000400183E991E00E94480190913B019817B1
:100A300031F060913B0183E991E00E94400184E93B
:100A400091E00E94480160913A01681721F084E921
:100A500091E00C94400108951F920F920FB60F92EF
:100A600011242F933F934F935F936F937F938F93B3
:100A70009F93AF93BF93CF93DF93EF93FF9381E661
:100A800090E00E94570F0E944F0FEC010E944F0F01
:100A900020E0382F2C2B3D2B30933F0120933E013B
:100AA00010923D0110923B0110923A0181E0809337
:100AB0003C01FF91EF91DF91CF91BF91AF919F9159
:100AC0008F917F916F915F914F913F912F910F90F7
:100AD0000FBE0F901F9018951F921FB61F921124E2
:100AE0008F9381E080933B0110923A0180913D0108
:100AF000853019F08F5F80933D018F911F901FBE4D
:100B00001F9018951F920F920FB60F9211242F93DA
:100B10003F934F935F936F937F938F939F93AF9385
:100B2000BF93EF93FF9360E080E00E944A03882325
:100B300061F081E080933B0110923A0180913D0188
:100B4000813019F0815080933D01FF91EF91BF9169
:100B5000AF919F918F917F916F915F914F913F9155
:100B60002F910F900FBE0F901F9018958091140138
:100B7000909115019C01322F22273295330F307E40
:100B8000822793279C01232F33272695822793279B
:100B90009C0165E0220F331F6A95E1F782279327B6
:100BA00090931501809314010895CF93DF93EC0186
:100BB00041E050E0698188810E94B80241E050E044
:100BC0006B818A810E94B80241E050E06D818C8186
:100BD0000E94B80241E050E06F818E810E94B8020D
:100BE00041E050E0698588850E94B80241E050E00C
:100BF0006B858A850E94B80241E050E06D858C8546
:100C00000E94B80241E050E06F858E85DF91CF9160
:100C10000C94B8020F931F93CF93DF93EC01042F32
:100C20006031F0F5E62FF0E0EA5EFE4F1081412FD3
:100C30004170698188810E94F10211FB442740F9CB
:100C40006B818A810E94F10212FB442740F96D8179
:100C50008C810E94F10213FB442740F96F818E8141
:100C60000E94F10214FB442740F9698588850E949F
:100C7000F10215FB442740F96B858A850E94F10239
:100C800016FB442740F96D858C850E94F102402FA8
:100C90006F858E85DF91CF911F910F910C94F1029A
:100CA000DF91CF911F910F910895FC018281938173
:100CB0008130910509F444C08230910509F44AC09D
:100CC000892B51F4809180008F7B809380008091EC
:100CD00080008F7780938000848195818130910599
:100CE000F1F18230910509F444C0892B51F48091CF
:100CF00080008F7E80938000809180008F7D809324
:100D00008000868197818230910509F461C0B0F539
:100D1000892B09F054C0809180008160809380000D
:100D2000809180008D7F8093800080918100886019
:100D300080938100809181008F7E8093810024C008
:100D4000219A809180008F7B809380008091800029
:100D50008068C0CF219A809180008064F5CF229A6C
:100D6000809180008F7E80938000809180008062DF
:100D7000C6CF229A809180008061F5CF83309105A3
:100D800059F1049709F449C080819181823091051D
:100D900009F473C008F062C0892B09F065C0809126
:100DA0008100816080938100809181008D7F80939C
:100DB0008100809181008B7F8093810008958091D4
:100DC00080008E7F80938000809180008260ABCF16
:100DD000809180008160F6CF3085818520918000F0
:100DE0002E7F20938000209180002260209380003D
:100DF0002091810028602093810020918100206152
:100E00002093810090918700982B90938700809188
:100E10008600832B80938600B7CF3285838520910F
:100E20008000216020938000209180002260209328
:100E30008000209181002860209381002091810012
:100E400020612093810090918900982B90938900D4
:100E500080918800832B8093880096CF8330910502
:100E600081F00497E1F00895809181008E7F809356
:100E700081008091810082609ACF809181008160A1
:100E8000F6CF809181008E7F8093810080918100D8
:100E90008D7F809381008091810084608DCF8091CF
:100EA00081008160F1CFCF92DF92EF92FF920F939A
:100EB0001F93CF93DF9300D000D000D0CDB7DEB723
:100EC0008B018E839D83FA01868197818230910503
:100ED000D9F18330910509F44EC0892B31F520E01A
:100EE00030E040E853E469831A838E818B838D81DF
:100EF0008C8369817A818B819C810E946B119B011B
:100F0000AC0160E070E080E893E40E94CF0F698359
:100F10007A838B839C8369817A818B819C810E94F7
:100F2000AE10709389006093880026960FB6F894EF
:100F3000DEBF0FBECDBFDF91CF911F910F91FF900C
:100F4000EF90DF90CF90089520E030E040E854E447
:100F500069831A838E818B838D818C8369817A81E9
:100F60008B819C810E946B119B01AC0160E070E061
:100F700080E894E4CACF808591859C0150E040E0F0
:100F800029833A834B835C83CA01B9010E94DD1037
:100F90006B017C0198014E815D816983DA828B83CC
:100FA000FC8269817A818B819C810E946B119B01FB
:100FB000AC0169817A818B819C81A7CFCF92DF922E
:100FC000EF92FF920F931F93CF93DF9300D000D047
:100FD00000D0CDB7DEB78B018E839D83FA01868169
:100FE00097818330910509F457C098F40097B1F0C8
:100FF0000297D9F126960FB6F894DEBF0FBECDBF8B
:10100000DF91CF911F910F91FF90EF90DF90CF90E4
:101010000895049779F78285938540C020E030E0F9
:1010200040E853E469831A838E818B838D818C839E
:1010300069817A818B819C810E946B119B01AC013B
:1010400060E070E080E893E40E94CF0F69837A83C8
:101050008B839C8369817A818B819C810E94AE10F5
:1010600070938B0060938A00C5CF20E030E040E8A9
:1010700054E469831A838E818B838D818C8369818B
:101080007A818B819C810E946B119B01AC0160E095
:1010900070E080E894E4D8CF808591859C0150E091
:1010A00040E029833A834B835C83CA01B9010E94E3
:1010B000DD106B017C0198014E815D816983DA82CC
:1010C0008B83FC8269817A818B819C810E946B1168
:1010D0009B01AC0169817A818B819C81B5CF4F9254
:1010E0005F926F927F92AF92BF92CF92DF92EF9218
:1010F000FF920F931F93CF93DF93CDB7DEB72B975C
:101100000FB6F894DEBF0FBECDBF89879A878B01DB
:10111000B22E29853A85253B310508F0E1C0DB0177
:101120008D919C918530910558F4880F991F880FF7
:10113000991FFC01EA5DFE4F408051806280738000
:10114000842F90E0B0E0A0E089839A83AB83BC83D6
:10115000BC01CD010E94DF102FE632E143E85AE3E3
:1011600069837A838B839C8369817A818B819C815B
:101170000E946B11A301920169837A838B839C8304
:1011800069817A818B819C810E943C1069837A837A
:101190008B839C8369817A818B819C810E94AE10B4
:1011A0006B012B2D30E050E040E029833A834B83E4
:1011B0005C83CA01B9010E94DF102FE632E143E8E7
:1011C0005AE369837A838B839C8369817A818B81DB
:1011D0009C810E946B11A301920169837A838B83A6
:1011E0009C8369817A818B819C810E943C106983F8
:1011F0007A838B839C8369817A818B819C810E9415
:10120000AE1069837A838B839C83C601B0E0A0E033
:101210008D839E83AF83B88729813A814B815C811E
:10122000281B390B4A0B5B0B29833A834B835C8366
:10123000CA01B9010E94DD106B017C01A985BA8544
:10124000CD01B0E0A0E089839A83AB83BC83BC016D
:10125000CD010E94DD1020E030E044E353E46983D7
:101260007A838B839C8369817A818B819C810E94A4
:101270003C105B018B8799876D817E818F8198857A
:101280000E94DD109B01AC01A982BA82BB85BB83A1
:10129000E985EC8369817A818B819C810E946B1145
:1012A0009B01AC01C982DA82EB82FC8269817A817E
:1012B0008B819C810E94D00F69837A838B839C836E
:1012C00069817A818B819C810E94AE10D80116962B
:1012D0008D919C91049711F0709389006093880020
:1012E0002B960FB6F894DEBF0FBECDBFDF91CF9126
:1012F0001F910F91FF90EF90DF90CF90BF90AF9034
:101300007F906F905F904F900895FC018FB78F771B
:101310008FBF808186BD818187BD84819581009743
:1013200099F0019721F1868197818230910509F426
:101330004EC098F5892B09F044C084B58F7784BDE1
:1013400084B58F7B84BD2BC084B58E7F84BD84B56E
:101350008D7F84BD85B5877F85BD8085918501970B
:1013600011F780916E00816080936E00DCCF84B5B0
:101370008E7F84BD84B5826084BD85B5877F85BD41
:1013800080859185019779F680916E0082608093C7
:101390006E0080916E008460E7CF0397D9F0828160
:1013A00093818230910541F1C0F4892BF9F485B520
:1013B000816085BD85B58D7F85BD85B58B7F85BDFC
:1013C00011C084B58F7784BD84B58064BBCF84B5EC
:1013D0008068B5CF84B58068F6CF8330910579F009
:1013E0000497B1F08FB780688FBF089585B58E7F61
:1013F00085BD85B58260E0CF85B58160F9CF85B5C3
:101400008E7F85BD85B58D7F85BD85B58460D7CF41
:1014100085B58160F6CF2091440130914501232BA1
:1014200021F0809344019093450108958FB78F7701
:101430008FBF85B58E7F85BD85B58D7F85BD85B513
:101440008B7F85BD8FB780688FBF0895CF92DF9265
:10145000EF92FF92CF93DF93CDB7DEB72A970FB607
:10146000F894DEBF0FBECDBF6B017C010E94160A4F
:10147000198289EF8A831A86198682E090E09C831C
:101480008B8381E090E09E838D8318861F82CE013E
:1014900001960E94850980E090E0DC018C159D0595
:1014A000AE05BF0569F42A960FB6F894DEBF0FBEED
:1014B000CDBFDF91CF91FF90EF90DF90CF90089557
:1014C000A89BECCF0196A11DB11DA89AE7CFCF92A2
:1014D000DF92EF92FF92CF93DF93CDB7DEB72A97DB
:1014E0000FB6F894DEBF0FBECDBF6B017C010E942A
:1014F000160A19828FE08A831A8619861C821B823B
:1015000081E090E09E838D8318861F82CE01019634
:101510000E94850980E090E0DC018C159D05AE05F8
:10152000BF0569F42A960FB6F894DEBF0FBECDBF93
:10153000DF91CF91FF90EF90DF90CF900895A99B1E
:10154000ECCF0196A11DB11DA99AE7CF1F920F9272
:101550000FB60F9211242F933F934F935F936F9386
:101560007F938F939F93AF93BF93EF93FF93E091FC
:101570004401F0914501309709F00995FF91EF91F1
:10158000BF91AF919F918F917F916F915F914F919B
:101590003F912F910F900FBE0F901F9018951F92A3
:1015A0000F920FB60F9211242F933F934F935F9397
:1015B0006F937F938F939F93AF93BF93EF93FF931B
:1015C0000E94A60AFF91EF91BF91AF919F918F91D9
:1015D0007F916F915F914F913F912F910F900FBE2F
:1015E0000F901F9018951F920F920FB60F92112413
:1015F0002F933F934F935F936F937F938F939F931B
:10160000AF93BF93EF93FF930E94A60AFF91EF91D0
:10161000BF91AF919F918F917F916F915F914F910A
:101620003F912F910F900FBE0F901F901895FC01C6
:101630008FB78F778FBF80818093B2008181809335
:10164000B300848195810097C1F0019779F186817B
:1016500097818230910509F469C008F044C0892B54
:1016600009F05BC08091B0008F778093B0008091CB
:10167000B0008F7B8093B00038C08091B0008E7F27
:101680008093B0008091B0008D7F8093B0008091F6
:10169000B100877F8093B100808591850197B9F66D
:1016A00080917000816080937000D1CF8091B000F4
:1016B0008E7F8093B0008091B00082608093B000F4
:1016C0008091B100877F8093B100808591850197DB
:1016D00009F0BDCF8091700082608093700080918E
:1016E00070008460E0CF039729F18281938182307A
:1016F0009105B1F118F5892B51F58091B100816008
:101700008093B1008091B1008D7F8093B100809172
:10171000B1008B7F8093B10016C08091B0008F77AD
:101720008093B0008091B0008064A4CF8091B0001D
:1017300080689BCF8091B0008068F2CF83309105A4
:10174000E9F0049721F18FB780688FBF08958091E9
:10175000B1008E7F8093B1008091B1008260D5CFBF
:101760008091B1008E7F8093B1008091B1008D7F18
:101770008093B1008091B1008460CCCF8091B100A2
:101780008E7F8093B1008091B1008260F1CF809113
:10179000B1008160F6CF2091400130914101232BAF
:1017A00021F080934001909341010895E1EBF0E036
:1017B00080818E7F808380818D7F808380818B7FFD
:1017C00080830895CF92DF92EF92FF92CF93DF93C1
:1017D000CDB7DEB72A970FB6F894DEBF0FBECDBFE8
:1017E0006B017C010E94D60B198289EF8A831A86CD
:1017F000198682E090E09C838B8381E090E09E8359
:101800008D8318861F82CE0101960E94170B80E0FF
:1018100090E0DC018C159D05AE05BF0569F42A96A4
:101820000FB6F894DEBF0FBECDBFDF91CF91FF9012
:10183000EF90DF90CF900895B89BECCF0196A11D5B
:10184000B11DB89AE7CFCF92DF92EF92FF92CF937C
:10185000DF93CDB7DEB72A970FB6F894DEBF0FBE81
:10186000CDBF6B017C010E94D60B19828FE08A8369
:101870001A8619861C821B8281E090E09E838D83EC
:1018800018861F82CE0101960E94170B80E090E01F
:10189000DC018C159D05AE05BF0569F42A960FB6CF
:1018A000F894DEBF0FBECDBFDF91CF91FF90EF90D8
:1018B000DF90CF900895B99BECCF0196A11DB11D8B
:1018C000B99AE7CF1F920F920FB60F9211242F9360
:1018D0003F934F935F936F937F938F939F93AF93B8
:1018E000BF93EF93FF93E0914001F0914101309756
:1018F00009F00995FF91EF91BF91AF919F918F9161
:101900007F916F915F914F913F912F910F900FBEFB
:101910000F901F9018951F920F920FB60F921124DF
:101920002F933F934F935F936F937F938F939F93E7
:10193000AF93BF93EF93FF930E94620CFF91EF91DF
:10194000BF91AF919F918F917F916F915F914F91D7
:101950003F912F910F900FBE0F901F9018951F92DF
:101960000F920FB60F9211242F933F934F935F93D3
:101970006F937F938F939F93AF93BF93EF93FF9357
:101980000E94620CFF91EF91BF91AF919F918F9157
:101990007F916F915F914F913F912F910F900FBE6B
:1019A0000F901F901895FC018FB78F778FBF8081A4
:1019B000918190938500809384008281938190939C
:1019C000890080938800868197810097C1F00197F4
:1019D000A1F1868197818230910509F473C008F0E6
:1019E0004EC0892B09F065C0809180008F7780936D
:1019F0008000809180008F7B8093800042C0809126
:101A000080008E7F80938000809180008D7F809306
:101A1000800080918100877F809381008091810088
:101A20008F7E8093810082859385019791F68091C6
:101A30006F00816080936F00CCCF809180008E7F9B
:101A400080938000809180008D7F809380008091C2
:101A50008100886080938100809181008F7E8093D7
:101A6000810082859385019709F0B3CF80916F0043
:101A7000826080936F0080916F008460DBCF03975A
:101A800029F18481958182309105B1F118F5892B76
:101A900051F5809181008160809381008091810067
:101AA0008D7F80938100809181008B7F8093810066
:101AB00016C0809180008F77809380008091800095
:101AC00080649ACF80918000806891CF809180005F
:101AD0008068F2CF8330910599F00497F9F08FB7C1
:101AE00080688FBF0895809181008E7F80938100F0
:101AF000809181008260D5CF809181008160F6CF96
:101B0000809181008E7F80938100809181008D7F04
:101B100080938100809181008460C8CF8091810092
:101B20008160F1CF2091420130914301232B21F0BC
:101B300080934201909343010895E1E8F0E08081B1
:101B40008E7F808380818D7F808380818B7F808367
:101B50000895CF92DF92EF92FF92CF93DF93CDB7AC
:101B6000DEB72A970FB6F894DEBF0FBECDBF6B016C
:101B70007C010E949D0D198289EF8A831A8619863D
:101B800082E090E09C838B8381E090E09E838D8354
:101B900018861F82CE0101960E94D30C80E090E04F
:101BA000DC018C159D05AE05BF0569F42A960FB6BC
:101BB000F894DEBF0FBECDBFDF91CF91FF90EF90C5
:101BC000DF90CF900895B89BECCF0196A11DB11D79
:101BD000B89AE7CFCF92DF92EF92FF92CF93DF9345
:101BE000CDB7DEB72A970FB6F894DEBF0FBECDBFD4
:101BF0006B017C010E949D0D19828FE08A831A86F9
:101C000019861C821B8281E090E09E838D8318865A
:101C10001F82CE0101960E94D30C80E090E0DC018F
:101C20008C159D05AE05BF0569F42A960FB6F8948C
:101C3000DEBF0FBECDBFDF91CF91FF90EF90DF9061
:101C4000CF900895B99BECCF0196A11DB11DB99A13
:101C5000E7CF1F920F920FB60F9211242F933F934D
:101C60004F935F936F937F938F939F93AF93BF93A4
:101C7000EF93FF93E0914201F0914301309709F017
:101C80000995FF91EF91BF91AF919F918F917F91B6
:101C90006F915F914F913F912F910F900FBE0F90D9
:101CA0001F9018951F920F920FB60F9211242F9329
:101CB0003F934F935F936F937F938F939F93AF93D4
:101CC000BF93EF93FF930E94290EFF91EF91BF9175
:101CD000AF919F918F917F916F915F914F913F91C4
:101CE0002F910F900FBE0F901F9018951F920F927B
:101CF0000FB60F9211242F933F934F935F936F93DF
:101D00007F938F939F93AF93BF93EF93FF930E9423
:101D1000290EFF91EF91BF91AF919F918F917F918C
:101D20006F915F914F913F912F910F900FBE0F9048
:101D30001F901895FC010797F8F4E25EFD4E0C9495
:101D4000AF0F89E08093C50080E68093C4000895BA
:101D500082E18093C50080ECF8CF85E28093C500D6
:101D600080E8F3CF88E38093C50080E4EECF8BE476
:101D70008093C5001092C400089580E7EFCF86E9F4
:101D8000F7CFCF93DF93EC018091C2008F7B8093DC
:101D9000C2008091C2008F778093C2008091C10001
:101DA00088608093C1008091C10080618093C100F0
:101DB000888199810E949A0E8A819B818130910548
:101DC00069F18230910599F1892B51F48091C2001B
:101DD0008F7E8093C2008091C2008F7D8093C2006D
:101DE0008C819D81009739F1019759F18E819F81F6
:101DF00082309105C9F148F5892B91F58091C20097
:101E00008D7F8093C2008091C2008B7F8093C2003F
:101E10008091C1008B7F8093C1001CC08091C20063
:101E20008F7E8093C2008091C2008062D7CF809164
:101E3000C2008061F6CF8091C200877F8093C2008C
:101E4000D5CF8091C2008860F9CF83309105A9F089
:101E50000497B9F08A859B85DF91CF910C949A0EF7
:101E60008091C2008260CDCF8091C2008D7F80932F
:101E7000C2008091C2008460C9CF8091C20082609C
:101E8000F6CF8091C20082608093C2008091C20030
:101E900084608093C2008091C1008460BCCF809137
:101EA000C00087FFFCCF8091C60090E0089590911C
:101EB000C000929596959770D1F38093C6000895CF
:101EC0000E9465040E947C040E9495046EE381E0F8
:101ED0000E9465030E94A1040E94B6040E94BE04F1
:101EE0000E94ED0480913C018823D1F30E948A0373
:101EF000F7CFAA1BBB1B51E107C0AA1FBB1FA61728
:101F0000B70710F0A61BB70B881F991F5A95A9F7A2
:101F100080959095BC01CD010895A1E21A2EAA1BCF
:101F2000BB1BFD010DC0AA1FBB1FEE1FFF1FA21789
:101F3000B307E407F50720F0A21BB30BE40BF50B86
:101F4000661F771F881F991F1A9469F7609570950F
:101F5000809590959B01AC01BD01CF010895EE0FD6
:101F6000FF1F0590F491E02D09940E94C00FA59FDA
:101F7000900DB49F900DA49F800D911D1124089584
:101F8000A29FB001B39FC001A39F700D811D1124BA
:101F9000911DB29F700D811D1124911D08955058FF
:101FA000BB27AA270E94E70F0C9431110E9423112E
:101FB00038F00E942A1120F039F49F3F19F426F4DA
:101FC0000C9420110EF4E095E7FB0C941A11E92F04
:101FD0000E94421158F3BA176207730784079507E6
:101FE00020F079F4A6F50C9464110EF4E0950B2E14
:101FF000BA2FA02D0B01B90190010C01CA01A0015B
:102000001124FF27591B99F0593F50F4503E68F1B5
:102010001A16F040A22F232F342F4427585FF3CFF6
:10202000469537952795A795F0405395C9F77EF4C7
:102030001F16BA0B620B730B840BBAF09150A1F010
:10204000FF0FBB1F661F771F881FC2F70EC0BA0F96
:10205000621F731F841F48F4879577956795B7951E
:10206000F7959E3F08F0B0CF9395880F08F0992719
:10207000EE0F9795879508950E9450100C9431119A
:102080000E942A1158F00E94231140F029F45F3F6A
:1020900029F00C941A1151110C9465110C94201113
:1020A0000E94421168F39923B1F3552391F3951BD4
:1020B000550BBB27AA2762177307840738F09F5F69
:1020C0005F4F220F331F441FAA1FA9F335D00E2ED6
:1020D0003AF0E0E832D091505040E695001CCAF743
:1020E0002BD0FE2F29D0660F771F881FBB1F261706
:1020F00037074807AB07B0E809F0BB0B802DBF01DD
:10210000FF2793585F4F3AF09E3F510578F00C94AB
:102110001A110C9465115F3FE4F3983ED4F3869551
:1021200077956795B795F7959F5FC9F7880F911DCC
:102130009695879597F90895E1E0660F771F881FB8
:10214000BB1F621773078407BA0720F0621B730B6B
:10215000840BBA0BEE1F88F7E09508950E944A1190
:1021600088F09F5798F0B92F9927B751B0F0E1F058
:10217000660F771F881F991F1AF0BA95C9F714C008
:10218000B13091F00E946411B1E008950C94641193
:10219000672F782F8827B85F39F0B93FCCF3869541
:1021A00077956795B395D9F73EF49095809570959E
:1021B00061957F4F8F4F9F4F0895E89409C097FB1B
:1021C0003EF490958095709561957F4F8F4F9F4F0E
:1021D0009923A9F0F92F96E9BB279395F695879552
:1021E00077956795B795F111F8CFFAF4BB0F11F415
:1021F00060FF1BC06F5F7F4F8F4F9F4F16C08823BC
:1022000011F096E911C0772321F09EE8872F762FF1
:1022100005C0662371F096E8862F70E060E02AF032
:102220009A95660F771F881FDAF7880F969587951E
:1022300097F9089597F99F6780E870E060E0089546
:102240009FEF80EC089500240A94161617061806CE
:102250000906089500240A941216130614060506AA
:102260000895092E0394000C11F4882352F0BB0F3B
:1022700040F4BF2B11F460FF04C06F5F7F4F8F4F9E
:102280009F4F089557FD9058440F551F59F05F3FD9
:1022900071F04795880F97FB991F61F09F3F79F088
:1022A00087950895121613061406551FF2CF46950A
:1022B000F1DF08C0161617061806991FF1CF86958C
:1022C0007105610508940895E894BB276627772770
:1022D000CB0197F908950E947E110C9431110E9450
:1022E000231138F00E942A1120F0952311F00C944C
:1022F0001A110C94201111240C9465110E944211A2
:1023000070F3959FC1F3950F50E0551F629FF00148
:10231000729FBB27F00DB11D639FAA27F00DB11D61
:10232000AA1F649F6627B00DA11D661F829F2227EA
:10233000B00DA11D621F739FB00DA11D621F839F71
:10234000A00D611D221F749F3327A00D611D231F47
:10235000849F600D211D822F762F6A2F11249F5795
:1023600050409AF0F1F088234AF0EE0FFF1FBB1F98
:10237000661F771F881F91505040A9F79E3F510557
:1023800080F00C941A110C9465115F3FE4F3983EB1
:10239000D4F3869577956795B795F795E7959F5F01
:1023A000C1F7FE2B880F911D9695879597F9089593
:1023B000F894FFCF5C006F00710078007A0086000F
:1023C00088008F009100A200AE00C300EB00F20075
:1023D000F4000001020109015A016901750180013F
:1023E000890192019B01A401AD01B601BF01CA019F
:1023F000D301DC01E501EE01F70100020B0214023A
:102400001D0226022F0238024102520254025602D5
:102410005C026002640268026C027002740278025C
:102420007E02820286028A028E02920296029C023A
:10243000A002A402A802AC02B002B402A10EA80E2F
:0A244000AD0EB20EB70EBD0EBF0EBA
:10244A00010000000A00000064000000E803000028
:10245A0010270000E4823F065B4F666D7D077F6FA1
:10246A00777C395E7971BD378633BD370635BD371E
:0A247A008636BD378637BD37863839
:00000001FF
